{
  "_format": "hh-sol-artifact-1",
  "contractName": "HealingToken",
  "sourceName": "contracts/HealingToken.sol",
  "abi": [
    {
      "inputs": [
        {
          "internalType": "address",
          "name": "initialOwner",
          "type": "address"
        }
      ],
      "stateMutability": "nonpayable",
      "type": "constructor"
    },
    {
      "inputs": [
        {
          "internalType": "address",
          "name": "spender",
          "type": "address"
        },
        {
          "internalType": "uint256",
          "name": "allowance",
          "type": "uint256"
        },
        {
          "internalType": "uint256",
          "name": "needed",
          "type": "uint256"
        }
      ],
      "name": "ERC20InsufficientAllowance",
      "type": "error"
    },
    {
      "inputs": [
        {
          "internalType": "address",
          "name": "sender",
          "type": "address"
        },
        {
          "internalType": "uint256",
          "name": "balance",
          "type": "uint256"
        },
        {
          "internalType": "uint256",
          "name": "needed",
          "type": "uint256"
        }
      ],
      "name": "ERC20InsufficientBalance",
      "type": "error"
    },
    {
      "inputs": [
        {
          "internalType": "address",
          "name": "approver",
          "type": "address"
        }
      ],
      "name": "ERC20InvalidApprover",
      "type": "error"
    },
    {
      "inputs": [
        {
          "internalType": "address",
          "name": "receiver",
          "type": "address"
        }
      ],
      "name": "ERC20InvalidReceiver",
      "type": "error"
    },
    {
      "inputs": [
        {
          "internalType": "address",
          "name": "sender",
          "type": "address"
        }
      ],
      "name": "ERC20InvalidSender",
      "type": "error"
    },
    {
      "inputs": [
        {
          "internalType": "address",
          "name": "spender",
          "type": "address"
        }
      ],
      "name": "ERC20InvalidSpender",
      "type": "error"
    },
    {
      "inputs": [
        {
          "internalType": "address",
          "name": "owner",
          "type": "address"
        }
      ],
      "name": "OwnableInvalidOwner",
      "type": "error"
    },
    {
      "inputs": [
        {
          "internalType": "address",
          "name": "account",
          "type": "address"
        }
      ],
      "name": "OwnableUnauthorizedAccount",
      "type": "error"
    },
    {
      "anonymous": false,
      "inputs": [
        {
          "indexed": true,
          "internalType": "address",
          "name": "owner",
          "type": "address"
        },
        {
          "indexed": true,
          "internalType": "address",
          "name": "spender",
          "type": "address"
        },
        {
          "indexed": false,
          "internalType": "uint256",
          "name": "value",
          "type": "uint256"
        }
      ],
      "name": "Approval",
      "type": "event"
    },
    {
      "anonymous": false,
      "inputs": [
        {
          "indexed": true,
          "internalType": "address",
          "name": "user",
          "type": "address"
        },
        {
          "indexed": false,
          "internalType": "string",
          "name": "emotion",
          "type": "string"
        },
        {
          "indexed": false,
          "internalType": "uint256",
          "name": "consecutiveDays",
          "type": "uint256"
        }
      ],
      "name": "MoodRecorded",
      "type": "event"
    },
    {
      "anonymous": false,
      "inputs": [
        {
          "indexed": true,
          "internalType": "address",
          "name": "previousOwner",
          "type": "address"
        },
        {
          "indexed": true,
          "internalType": "address",
          "name": "newOwner",
          "type": "address"
        }
      ],
      "name": "OwnershipTransferred",
      "type": "event"
    },
    {
      "anonymous": false,
      "inputs": [
        {
          "indexed": true,
          "internalType": "address",
          "name": "user",
          "type": "address"
        },
        {
          "indexed": false,
          "internalType": "uint256",
          "name": "amount",
          "type": "uint256"
        },
        {
          "indexed": false,
          "internalType": "string",
          "name": "reason",
          "type": "string"
        }
      ],
      "name": "TokensRewarded",
      "type": "event"
    },
    {
      "anonymous": false,
      "inputs": [
        {
          "indexed": true,
          "internalType": "address",
          "name": "from",
          "type": "address"
        },
        {
          "indexed": true,
          "internalType": "address",
          "name": "to",
          "type": "address"
        },
        {
          "indexed": false,
          "internalType": "uint256",
          "name": "value",
          "type": "uint256"
        }
      ],
      "name": "Transfer",
      "type": "event"
    },
    {
      "inputs": [
        {
          "internalType": "address",
          "name": "owner",
          "type": "address"
        },
        {
          "internalType": "address",
          "name": "spender",
          "type": "address"
        }
      ],
      "name": "allowance",
      "outputs": [
        {
          "internalType": "uint256",
          "name": "",
          "type": "uint256"
        }
      ],
      "stateMutability": "view",
      "type": "function"
    },
    {
      "inputs": [
        {
          "internalType": "address",
          "name": "spender",
          "type": "address"
        },
        {
          "internalType": "uint256",
          "name": "value",
          "type": "uint256"
        }
      ],
      "name": "approve",
      "outputs": [
        {
          "internalType": "bool",
          "name": "",
          "type": "bool"
        }
      ],
      "stateMutability": "nonpayable",
      "type": "function"
    },
    {
      "inputs": [
        {
          "internalType": "address",
          "name": "account",
          "type": "address"
        }
      ],
      "name": "balanceOf",
      "outputs": [
        {
          "internalType": "uint256",
          "name": "",
          "type": "uint256"
        }
      ],
      "stateMutability": "view",
      "type": "function"
    },
    {
      "inputs": [],
      "name": "decimals",
      "outputs": [
        {
          "internalType": "uint8",
          "name": "",
          "type": "uint8"
        }
      ],
      "stateMutability": "view",
      "type": "function"
    },
    {
      "inputs": [
        {
          "internalType": "address",
          "name": "user",
          "type": "address"
        }
      ],
      "name": "getConsecutiveDays",
      "outputs": [
        {
          "internalType": "uint256",
          "name": "",
          "type": "uint256"
        }
      ],
      "stateMutability": "view",
      "type": "function"
    },
    {
      "inputs": [
        {
          "internalType": "address",
          "name": "user",
          "type": "address"
        }
      ],
      "name": "getTotalRecords",
      "outputs": [
        {
          "internalType": "uint256",
          "name": "",
          "type": "uint256"
        }
      ],
      "stateMutability": "view",
      "type": "function"
    },
    {
      "inputs": [
        {
          "internalType": "address",
          "name": "user",
          "type": "address"
        }
      ],
      "name": "getUserMoodRecord",
      "outputs": [
        {
          "components": [
            {
              "internalType": "uint256",
              "name": "lastRecordTime",
              "type": "uint256"
            },
            {
              "internalType": "uint256",
              "name": "consecutiveDays",
              "type": "uint256"
            },
            {
              "internalType": "uint256",
              "name": "totalRecords",
              "type": "uint256"
            }
          ],
          "internalType": "struct HealingToken.MoodRecord",
          "name": "",
          "type": "tuple"
        }
      ],
      "stateMutability": "view",
      "type": "function"
    },
    {
      "inputs": [
        {
          "internalType": "address",
          "name": "user",
          "type": "address"
        }
      ],
      "name": "hasCompletedWeek",
      "outputs": [
        {
          "internalType": "bool",
          "name": "",
          "type": "bool"
        }
      ],
      "stateMutability": "view",
      "type": "function"
    },
    {
      "inputs": [
        {
          "internalType": "address",
          "name": "to",
          "type": "address"
        },
        {
          "internalType": "uint256",
          "name": "amount",
          "type": "uint256"
        }
      ],
      "name": "mint",
      "outputs": [],
      "stateMutability": "nonpayable",
      "type": "function"
    },
    {
      "inputs": [
        {
          "internalType": "address",
          "name": "",
          "type": "address"
        }
      ],
      "name": "moodRecords",
      "outputs": [
        {
          "internalType": "uint256",
          "name": "lastRecordTime",
          "type": "uint256"
        },
        {
          "internalType": "uint256",
          "name": "consecutiveDays",
          "type": "uint256"
        },
        {
          "internalType": "uint256",
          "name": "totalRecords",
          "type": "uint256"
        }
      ],
      "stateMutability": "view",
      "type": "function"
    },
    {
      "inputs": [],
      "name": "name",
      "outputs": [
        {
          "internalType": "string",
          "name": "",
          "type": "string"
        }
      ],
      "stateMutability": "view",
      "type": "function"
    },
    {
      "inputs": [],
      "name": "owner",
      "outputs": [
        {
          "internalType": "address",
          "name": "",
          "type": "address"
        }
      ],
      "stateMutability": "view",
      "type": "function"
    },
    {
      "inputs": [
        {
          "internalType": "address",
          "name": "user",
          "type": "address"
        },
        {
          "internalType": "string",
          "name": "emotion",
          "type": "string"
        }
      ],
      "name": "recordMood",
      "outputs": [],
      "stateMutability": "nonpayable",
      "type": "function"
    },
    {
      "inputs": [],
      "name": "renounceOwnership",
      "outputs": [],
      "stateMutability": "nonpayable",
      "type": "function"
    },
    {
      "inputs": [],
      "name": "symbol",
      "outputs": [
        {
          "internalType": "string",
          "name": "",
          "type": "string"
        }
      ],
      "stateMutability": "view",
      "type": "function"
    },
    {
      "inputs": [],
      "name": "totalSupply",
      "outputs": [
        {
          "internalType": "uint256",
          "name": "",
          "type": "uint256"
        }
      ],
      "stateMutability": "view",
      "type": "function"
    },
    {
      "inputs": [
        {
          "internalType": "address",
          "name": "to",
          "type": "address"
        },
        {
          "internalType": "uint256",
          "name": "value",
          "type": "uint256"
        }
      ],
      "name": "transfer",
      "outputs": [
        {
          "internalType": "bool",
          "name": "",
          "type": "bool"
        }
      ],
      "stateMutability": "nonpayable",
      "type": "function"
    },
    {
      "inputs": [
        {
          "internalType": "address",
          "name": "from",
          "type": "address"
        },
        {
          "internalType": "address",
          "name": "to",
          "type": "address"
        },
        {
          "internalType": "uint256",
          "name": "value",
          "type": "uint256"
        }
      ],
      "name": "transferFrom",
      "outputs": [
        {
          "internalType": "bool",
          "name": "",
          "type": "bool"
        }
      ],
      "stateMutability": "nonpayable",
      "type": "function"
    },
    {
      "inputs": [
        {
          "internalType": "address",
          "name": "newOwner",
          "type": "address"
        }
      ],
      "name": "transferOwnership",
      "outputs": [],
      "stateMutability": "nonpayable",
      "type": "function"
    }
  ],
  "bytecode": "0x608060405234801561001057600080fd5b5060405161203e38038061203e83398181016040528101906100329190610272565b806040518060400160405280600d81526020017f4865616c696e6720546f6b656e000000000000000000000000000000000000008152506040518060400160405280600481526020017f4845414c0000000000000000000000000000000000000000000000000000000081525081600390816100ae91906104ef565b5080600490816100be91906104ef565b505050600073ffffffffffffffffffffffffffffffffffffffff168173ffffffffffffffffffffffffffffffffffffffff16036101335760006040517f1e4fbdf700000000000000000000000000000000000000000000000000000000815260040161012a91906105d0565b60405180910390fd5b6101428161014960201b60201c565b50506105eb565b6000600560009054906101000a900473ffffffffffffffffffffffffffffffffffffffff16905081600560006101000a81548173ffffffffffffffffffffffffffffffffffffffff021916908373ffffffffffffffffffffffffffffffffffffffff1602179055508173ffffffffffffffffffffffffffffffffffffffff168173ffffffffffffffffffffffffffffffffffffffff167f8be0079c531659141344cd1fd0a4f28419497f9722a3daafe3b4186f6b6457e060405160405180910390a35050565b600080fd5b600073ffffffffffffffffffffffffffffffffffffffff82169050919050565b600061023f82610214565b9050919050565b61024f81610234565b811461025a57600080fd5b50565b60008151905061026c81610246565b92915050565b6000602082840312156102885761028761020f565b5b60006102968482850161025d565b91505092915050565b600081519050919050565b7f4e487b7100000000000000000000000000000000000000000000000000000000600052604160045260246000fd5b7f4e487b7100000000000000000000000000000000000000000000000000000000600052602260045260246000fd5b6000600282049050600182168061032057607f821691505b602082108103610333576103326102d9565b5b50919050565b60008190508160005260206000209050919050565b60006020601f8301049050919050565b600082821b905092915050565b60006008830261039b7fffffffffffffffffffffffffffffffffffffffffffffffffffffffffffffffff8261035e565b6103a5868361035e565b95508019841693508086168417925050509392505050565b6000819050919050565b6000819050919050565b60006103ec6103e76103e2846103bd565b6103c7565b6103bd565b9050919050565b6000819050919050565b610406836103d1565b61041a610412826103f3565b84845461036b565b825550505050565b600090565b61042f610422565b61043a8184846103fd565b505050565b5b8181101561045e57610453600082610427565b600181019050610440565b5050565b601f8211156104a35761047481610339565b61047d8461034e565b8101602085101561048c578190505b6104a06104988561034e565b83018261043f565b50505b505050565b600082821c905092915050565b60006104c6600019846008026104a8565b1980831691505092915050565b60006104df83836104b5565b9150826002028217905092915050565b6104f88261029f565b67ffffffffffffffff811115610511576105106102aa565b5b61051b8254610308565b610526828285610462565b600060209050601f8311600181146105595760008415610547578287015190505b61055185826104d3565b8655506105b9565b601f19841661056786610339565b60005b8281101561058f5784890151825560018201915060208501945060208101905061056a565b868310156105ac57848901516105a8601f8916826104b5565b8355505b6001600288020188555050505b505050505050565b6105ca81610234565b82525050565b60006020820190506105e560008301846105c1565b92915050565b611a44806105fa6000396000f3fe608060405234801561001057600080fd5b50600436106101215760003560e01c8063833921b6116100ad578063a9059cbb11610071578063a9059cbb1461031e578063be63a07b1461034e578063dd62ed3e14610380578063ea23791e146103b0578063f2fde38b146103e057610121565b8063833921b6146102665780638d6d38f8146102965780638da5cb5b146102c657806395d89b41146102e4578063a3221a061461030257610121565b8063313ce567116100f4578063313ce567146101c257806340c10f19146101e0578063637546ec146101fc57806370a082311461022c578063715018a61461025c57610121565b806306fdde0314610126578063095ea7b31461014457806318160ddd1461017457806323b872dd14610192575b600080fd5b61012e6103fc565b60405161013b91906112cf565b60405180910390f35b61015e60048036038101906101599190611399565b61048e565b60405161016b91906113f4565b60405180910390f35b61017c6104b1565b604051610189919061141e565b60405180910390f35b6101ac60048036038101906101a79190611439565b6104bb565b6040516101b991906113f4565b60405180910390f35b6101ca6104ea565b6040516101d791906114a8565b60405180910390f35b6101fa60048036038101906101f59190611399565b6104f3565b005b610216600480360381019061021191906114c3565b610509565b604051610223919061141e565b60405180910390f35b610246600480360381019061024191906114c3565b610555565b604051610253919061141e565b60405180910390f35b61026461059d565b005b610280600480360381019061027b91906114c3565b6105b1565b60405161028d919061141e565b60405180910390f35b6102b060048036038101906102ab91906114c3565b6105fd565b6040516102bd9190611541565b60405180910390f35b6102ce610674565b6040516102db919061156b565b60405180910390f35b6102ec61069e565b6040516102f991906112cf565b60405180910390f35b61031c600480360381019061031791906116bb565b610730565b005b61033860048036038101906103339190611399565b6108cc565b60405161034591906113f4565b60405180910390f35b610368600480360381019061036391906114c3565b6108ef565b60405161037793929190611717565b60405180910390f35b61039a6004803603810190610395919061174e565b610919565b6040516103a7919061141e565b60405180910390f35b6103ca60048036038101906103c591906114c3565b6109a0565b6040516103d791906113f4565b60405180910390f35b6103fa60048036038101906103f591906114c3565b6109f0565b005b60606003805461040b906117bd565b80601f0160208091040260200160405190810160405280929190818152602001828054610437906117bd565b80156104845780601f1061045957610100808354040283529160200191610484565b820191906000526020600020905b81548152906001019060200180831161046757829003601f168201915b5050505050905090565b600080610499610a76565b90506104a6818585610a7e565b600191505092915050565b6000600254905090565b6000806104c6610a76565b90506104d3858285610a90565b6104de858585610b25565b60019150509392505050565b60006012905090565b6104fb610c19565b6105058282610ca0565b5050565b6000600660008373ffffffffffffffffffffffffffffffffffffffff1673ffffffffffffffffffffffffffffffffffffffff168152602001908152602001600020600101549050919050565b60008060008373ffffffffffffffffffffffffffffffffffffffff1673ffffffffffffffffffffffffffffffffffffffff168152602001908152602001600020549050919050565b6105a5610c19565b6105af6000610d22565b565b6000600660008373ffffffffffffffffffffffffffffffffffffffff1673ffffffffffffffffffffffffffffffffffffffff168152602001908152602001600020600201549050919050565b61060561121e565b600660008373ffffffffffffffffffffffffffffffffffffffff1673ffffffffffffffffffffffffffffffffffffffff16815260200190815260200160002060405180606001604052908160008201548152602001600182015481526020016002820154815250509050919050565b6000600560009054906101000a900473ffffffffffffffffffffffffffffffffffffffff16905090565b6060600480546106ad906117bd565b80601f01602080910402602001604051908101604052809291908181526020018280546106d9906117bd565b80156107265780601f106106fb57610100808354040283529160200191610726565b820191906000526020600020905b81548152906001019060200180831161070957829003601f168201915b5050505050905090565b610738610c19565b6000600660008473ffffffffffffffffffffffffffffffffffffffff1673ffffffffffffffffffffffffffffffffffffffff1681526020019081526020016000209050600042905062015180826000015482610794919061181d565b106107c1578160010160008154809291906107ae90611851565b91905055508082600001819055506107e3565b620151808260000154826107d5919061181d565b10156107e25750506108c8565b5b8160020160008154809291906107f890611851565b9190505550600061080c8360010154610de8565b90506000811115610870576108218582610ca0565b8473ffffffffffffffffffffffffffffffffffffffff167fb969d134776a7f04430dbbcac4e68734b1c6c5adcecbf68c3cbe6a9a4f2c8a1d8260405161086791906118e5565b60405180910390a25b8473ffffffffffffffffffffffffffffffffffffffff167f93731f3461edfc70b9e3ebb74efdf999e37c38aa8fa95639797785f9bf81428d8585600101546040516108bc929190611913565b60405180910390a25050505b5050565b6000806108d7610a76565b90506108e4818585610b25565b600191505092915050565b60066020528060005260406000206000915090508060000154908060010154908060020154905083565b6000600160008473ffffffffffffffffffffffffffffffffffffffff1673ffffffffffffffffffffffffffffffffffffffff16815260200190815260200160002060008373ffffffffffffffffffffffffffffffffffffffff1673ffffffffffffffffffffffffffffffffffffffff16815260200190815260200160002054905092915050565b60006007600660008473ffffffffffffffffffffffffffffffffffffffff1673ffffffffffffffffffffffffffffffffffffffff1681526020019081526020016000206001015410159050919050565b6109f8610c19565b600073ffffffffffffffffffffffffffffffffffffffff168173ffffffffffffffffffffffffffffffffffffffff1603610a6a5760006040517f1e4fbdf7000000000000000000000000000000000000000000000000000000008152600401610a61919061156b565b60405180910390fd5b610a7381610d22565b50565b600033905090565b610a8b8383836001610e22565b505050565b6000610a9c8484610919565b90507fffffffffffffffffffffffffffffffffffffffffffffffffffffffffffffffff811015610b1f5781811015610b0f578281836040517ffb8f41b2000000000000000000000000000000000000000000000000000000008152600401610b0693929190611943565b60405180910390fd5b610b1e84848484036000610e22565b5b50505050565b600073ffffffffffffffffffffffffffffffffffffffff168373ffffffffffffffffffffffffffffffffffffffff1603610b975760006040517f96c6fd1e000000000000000000000000000000000000000000000000000000008152600401610b8e919061156b565b60405180910390fd5b600073ffffffffffffffffffffffffffffffffffffffff168273ffffffffffffffffffffffffffffffffffffffff1603610c095760006040517fec442f05000000000000000000000000000000000000000000000000000000008152600401610c00919061156b565b60405180910390fd5b610c14838383610ff9565b505050565b610c21610a76565b73ffffffffffffffffffffffffffffffffffffffff16610c3f610674565b73ffffffffffffffffffffffffffffffffffffffff1614610c9e57610c62610a76565b6040517f118cdaa7000000000000000000000000000000000000000000000000000000008152600401610c95919061156b565b60405180910390fd5b565b600073ffffffffffffffffffffffffffffffffffffffff168273ffffffffffffffffffffffffffffffffffffffff1603610d125760006040517fec442f05000000000000000000000000000000000000000000000000000000008152600401610d09919061156b565b60405180910390fd5b610d1e60008383610ff9565b5050565b6000600560009054906101000a900473ffffffffffffffffffffffffffffffffffffffff16905081600560006101000a81548173ffffffffffffffffffffffffffffffffffffffff021916908373ffffffffffffffffffffffffffffffffffffffff1602179055508173ffffffffffffffffffffffffffffffffffffffff168173ffffffffffffffffffffffffffffffffffffffff167f8be0079c531659141344cd1fd0a4f28419497f9722a3daafe3b4186f6b6457e060405160405180910390a35050565b600060078203610dfb57600a9050610e1d565b6000600783610e0a91906119a9565b03610e1857600a9050610e1d565b600190505b919050565b600073ffffffffffffffffffffffffffffffffffffffff168473ffffffffffffffffffffffffffffffffffffffff1603610e945760006040517fe602df05000000000000000000000000000000000000000000000000000000008152600401610e8b919061156b565b60405180910390fd5b600073ffffffffffffffffffffffffffffffffffffffff168373ffffffffffffffffffffffffffffffffffffffff1603610f065760006040517f94280d62000000000000000000000000000000000000000000000000000000008152600401610efd919061156b565b60405180910390fd5b81600160008673ffffffffffffffffffffffffffffffffffffffff1673ffffffffffffffffffffffffffffffffffffffff16815260200190815260200160002060008573ffffffffffffffffffffffffffffffffffffffff1673ffffffffffffffffffffffffffffffffffffffff168152602001908152602001600020819055508015610ff3578273ffffffffffffffffffffffffffffffffffffffff168473ffffffffffffffffffffffffffffffffffffffff167f8c5be1e5ebec7d5bd14f71427d1e84f3dd0314c0f7b2291e5b200ac8c7c3b92584604051610fea919061141e565b60405180910390a35b50505050565b600073ffffffffffffffffffffffffffffffffffffffff168373ffffffffffffffffffffffffffffffffffffffff160361104b57806002600082825461103f91906119da565b9250508190555061111e565b60008060008573ffffffffffffffffffffffffffffffffffffffff1673ffffffffffffffffffffffffffffffffffffffff168152602001908152602001600020549050818110156110d7578381836040517fe450d38c0000000000000000000000000000000000000000000000000000000081526004016110ce93929190611943565b60405180910390fd5b8181036000808673ffffffffffffffffffffffffffffffffffffffff1673ffffffffffffffffffffffffffffffffffffffff16815260200190815260200160002081905550505b600073ffffffffffffffffffffffffffffffffffffffff168273ffffffffffffffffffffffffffffffffffffffff160361116757806002600082825403925050819055506111b4565b806000808473ffffffffffffffffffffffffffffffffffffffff1673ffffffffffffffffffffffffffffffffffffffff168152602001908152602001600020600082825401925050819055505b8173ffffffffffffffffffffffffffffffffffffffff168373ffffffffffffffffffffffffffffffffffffffff167fddf252ad1be2c89b69c2b068fc378daa952ba7f163c4a11628f55a4df523b3ef83604051611211919061141e565b60405180910390a3505050565b60405180606001604052806000815260200160008152602001600081525090565b600081519050919050565b600082825260208201905092915050565b60005b8381101561127957808201518184015260208101905061125e565b60008484015250505050565b6000601f19601f8301169050919050565b60006112a18261123f565b6112ab818561124a565b93506112bb81856020860161125b565b6112c481611285565b840191505092915050565b600060208201905081810360008301526112e98184611296565b905092915050565b6000604051905090565b600080fd5b600080fd5b600073ffffffffffffffffffffffffffffffffffffffff82169050919050565b600061133082611305565b9050919050565b61134081611325565b811461134b57600080fd5b50565b60008135905061135d81611337565b92915050565b6000819050919050565b61137681611363565b811461138157600080fd5b50565b6000813590506113938161136d565b92915050565b600080604083850312156113b0576113af6112fb565b5b60006113be8582860161134e565b92505060206113cf85828601611384565b9150509250929050565b60008115159050919050565b6113ee816113d9565b82525050565b600060208201905061140960008301846113e5565b92915050565b61141881611363565b82525050565b6000602082019050611433600083018461140f565b92915050565b600080600060608486031215611452576114516112fb565b5b60006114608682870161134e565b93505060206114718682870161134e565b925050604061148286828701611384565b9150509250925092565b600060ff82169050919050565b6114a28161148c565b82525050565b60006020820190506114bd6000830184611499565b92915050565b6000602082840312156114d9576114d86112fb565b5b60006114e78482850161134e565b91505092915050565b6114f981611363565b82525050565b60608201600082015161151560008501826114f0565b50602082015161152860208501826114f0565b50604082015161153b60408501826114f0565b50505050565b600060608201905061155660008301846114ff565b92915050565b61156581611325565b82525050565b6000602082019050611580600083018461155c565b92915050565b600080fd5b600080fd5b7f4e487b7100000000000000000000000000000000000000000000000000000000600052604160045260246000fd5b6115c882611285565b810181811067ffffffffffffffff821117156115e7576115e6611590565b5b80604052505050565b60006115fa6112f1565b905061160682826115bf565b919050565b600067ffffffffffffffff82111561162657611625611590565b5b61162f82611285565b9050602081019050919050565b82818337600083830152505050565b600061165e6116598461160b565b6115f0565b90508281526020810184848401111561167a5761167961158b565b5b61168584828561163c565b509392505050565b600082601f8301126116a2576116a1611586565b5b81356116b284826020860161164b565b91505092915050565b600080604083850312156116d2576116d16112fb565b5b60006116e08582860161134e565b925050602083013567ffffffffffffffff81111561170157611700611300565b5b61170d8582860161168d565b9150509250929050565b600060608201905061172c600083018661140f565b611739602083018561140f565b611746604083018461140f565b949350505050565b60008060408385031215611765576117646112fb565b5b60006117738582860161134e565b92505060206117848582860161134e565b9150509250929050565b7f4e487b7100000000000000000000000000000000000000000000000000000000600052602260045260246000fd5b600060028204905060018216806117d557607f821691505b6020821081036117e8576117e761178e565b5b50919050565b7f4e487b7100000000000000000000000000000000000000000000000000000000600052601160045260246000fd5b600061182882611363565b915061183383611363565b925082820390508181111561184b5761184a6117ee565b5b92915050565b600061185c82611363565b91507fffffffffffffffffffffffffffffffffffffffffffffffffffffffffffffffff820361188e5761188d6117ee565b5b600182019050919050565b7f4d6f6f64205265636f7264000000000000000000000000000000000000000000600082015250565b60006118cf600b8361124a565b91506118da82611899565b602082019050919050565b60006040820190506118fa600083018461140f565b818103602083015261190b816118c2565b905092915050565b6000604082019050818103600083015261192d8185611296565b905061193c602083018461140f565b9392505050565b6000606082019050611958600083018661155c565b611965602083018561140f565b611972604083018461140f565b949350505050565b7f4e487b7100000000000000000000000000000000000000000000000000000000600052601260045260246000fd5b60006119b482611363565b91506119bf83611363565b9250826119cf576119ce61197a565b5b828206905092915050565b60006119e582611363565b91506119f083611363565b9250828201905080821115611a0857611a076117ee565b5b9291505056fea264697066735822122081e8f1263e0f23623ca30d5b241f6faebe284f1e5804ba03bdb6958f481cbb9464736f6c634300081c0033",
  "linkReferences": {},
  "deployedLinkReferences": {}
}