{
  "_format": "hh-sol-artifact-1",
  "contractName": "MoodiPetNFT",
  "sourceName": "contracts/NFT.sol",
  "abi": [
    {
      "inputs": [
        {
          "internalType": "address",
          "name": "initialOwner",
          "type": "address"
        }
      ],
      "stateMutability": "nonpayable",
      "type": "constructor"
    },
    {
      "inputs": [
        {
          "internalType": "address",
          "name": "sender",
          "type": "address"
        },
        {
          "internalType": "uint256",
          "name": "tokenId",
          "type": "uint256"
        },
        {
          "internalType": "address",
          "name": "owner",
          "type": "address"
        }
      ],
      "name": "ERC721IncorrectOwner",
      "type": "error"
    },
    {
      "inputs": [
        {
          "internalType": "address",
          "name": "operator",
          "type": "address"
        },
        {
          "internalType": "uint256",
          "name": "tokenId",
          "type": "uint256"
        }
      ],
      "name": "ERC721InsufficientApproval",
      "type": "error"
    },
    {
      "inputs": [
        {
          "internalType": "address",
          "name": "approver",
          "type": "address"
        }
      ],
      "name": "ERC721InvalidApprover",
      "type": "error"
    },
    {
      "inputs": [
        {
          "internalType": "address",
          "name": "operator",
          "type": "address"
        }
      ],
      "name": "ERC721InvalidOperator",
      "type": "error"
    },
    {
      "inputs": [
        {
          "internalType": "address",
          "name": "owner",
          "type": "address"
        }
      ],
      "name": "ERC721InvalidOwner",
      "type": "error"
    },
    {
      "inputs": [
        {
          "internalType": "address",
          "name": "receiver",
          "type": "address"
        }
      ],
      "name": "ERC721InvalidReceiver",
      "type": "error"
    },
    {
      "inputs": [
        {
          "internalType": "address",
          "name": "sender",
          "type": "address"
        }
      ],
      "name": "ERC721InvalidSender",
      "type": "error"
    },
    {
      "inputs": [
        {
          "internalType": "uint256",
          "name": "tokenId",
          "type": "uint256"
        }
      ],
      "name": "ERC721NonexistentToken",
      "type": "error"
    },
    {
      "inputs": [
        {
          "internalType": "address",
          "name": "owner",
          "type": "address"
        }
      ],
      "name": "OwnableInvalidOwner",
      "type": "error"
    },
    {
      "inputs": [
        {
          "internalType": "address",
          "name": "account",
          "type": "address"
        }
      ],
      "name": "OwnableUnauthorizedAccount",
      "type": "error"
    },
    {
      "anonymous": false,
      "inputs": [
        {
          "indexed": true,
          "internalType": "address",
          "name": "owner",
          "type": "address"
        },
        {
          "indexed": true,
          "internalType": "address",
          "name": "approved",
          "type": "address"
        },
        {
          "indexed": true,
          "internalType": "uint256",
          "name": "tokenId",
          "type": "uint256"
        }
      ],
      "name": "Approval",
      "type": "event"
    },
    {
      "anonymous": false,
      "inputs": [
        {
          "indexed": true,
          "internalType": "address",
          "name": "owner",
          "type": "address"
        },
        {
          "indexed": true,
          "internalType": "address",
          "name": "operator",
          "type": "address"
        },
        {
          "indexed": false,
          "internalType": "bool",
          "name": "approved",
          "type": "bool"
        }
      ],
      "name": "ApprovalForAll",
      "type": "event"
    },
    {
      "anonymous": false,
      "inputs": [
        {
          "indexed": false,
          "internalType": "uint256",
          "name": "_fromTokenId",
          "type": "uint256"
        },
        {
          "indexed": false,
          "internalType": "uint256",
          "name": "_toTokenId",
          "type": "uint256"
        }
      ],
      "name": "BatchMetadataUpdate",
      "type": "event"
    },
    {
      "anonymous": false,
      "inputs": [
        {
          "indexed": false,
          "internalType": "uint256",
          "name": "_tokenId",
          "type": "uint256"
        }
      ],
      "name": "MetadataUpdate",
      "type": "event"
    },
    {
      "anonymous": false,
      "inputs": [
        {
          "indexed": true,
          "internalType": "address",
          "name": "previousOwner",
          "type": "address"
        },
        {
          "indexed": true,
          "internalType": "address",
          "name": "newOwner",
          "type": "address"
        }
      ],
      "name": "OwnershipTransferred",
      "type": "event"
    },
    {
      "anonymous": false,
      "inputs": [
        {
          "indexed": true,
          "internalType": "address",
          "name": "owner",
          "type": "address"
        },
        {
          "indexed": true,
          "internalType": "uint256",
          "name": "tokenId",
          "type": "uint256"
        },
        {
          "indexed": false,
          "internalType": "string",
          "name": "emotion",
          "type": "string"
        },
        {
          "indexed": false,
          "internalType": "string",
          "name": "color",
          "type": "string"
        },
        {
          "indexed": false,
          "internalType": "uint8",
          "name": "evolution",
          "type": "uint8"
        }
      ],
      "name": "PetMinted",
      "type": "event"
    },
    {
      "anonymous": false,
      "inputs": [
        {
          "indexed": true,
          "internalType": "address",
          "name": "from",
          "type": "address"
        },
        {
          "indexed": true,
          "internalType": "address",
          "name": "to",
          "type": "address"
        },
        {
          "indexed": true,
          "internalType": "uint256",
          "name": "tokenId",
          "type": "uint256"
        }
      ],
      "name": "Transfer",
      "type": "event"
    },
    {
      "inputs": [
        {
          "internalType": "address",
          "name": "to",
          "type": "address"
        },
        {
          "internalType": "uint256",
          "name": "tokenId",
          "type": "uint256"
        }
      ],
      "name": "approve",
      "outputs": [],
      "stateMutability": "nonpayable",
      "type": "function"
    },
    {
      "inputs": [
        {
          "internalType": "address",
          "name": "owner",
          "type": "address"
        }
      ],
      "name": "balanceOf",
      "outputs": [
        {
          "internalType": "uint256",
          "name": "",
          "type": "uint256"
        }
      ],
      "stateMutability": "view",
      "type": "function"
    },
    {
      "inputs": [
        {
          "internalType": "uint256",
          "name": "tokenId",
          "type": "uint256"
        },
        {
          "internalType": "uint8",
          "name": "newEvolution",
          "type": "uint8"
        }
      ],
      "name": "evolvePet",
      "outputs": [],
      "stateMutability": "nonpayable",
      "type": "function"
    },
    {
      "inputs": [
        {
          "internalType": "uint256",
          "name": "tokenId",
          "type": "uint256"
        }
      ],
      "name": "getApproved",
      "outputs": [
        {
          "internalType": "address",
          "name": "",
          "type": "address"
        }
      ],
      "stateMutability": "view",
      "type": "function"
    },
    {
      "inputs": [
        {
          "internalType": "uint256",
          "name": "tokenId",
          "type": "uint256"
        }
      ],
      "name": "getPetAttributes",
      "outputs": [
        {
          "components": [
            {
              "internalType": "string",
              "name": "emotion",
              "type": "string"
            },
            {
              "internalType": "string",
              "name": "color",
              "type": "string"
            },
            {
              "internalType": "uint8",
              "name": "evolution",
              "type": "uint8"
            },
            {
              "internalType": "uint256",
              "name": "createdAt",
              "type": "uint256"
            },
            {
              "internalType": "string",
              "name": "personality",
              "type": "string"
            }
          ],
          "internalType": "struct MoodiPetNFT.PetAttributes",
          "name": "",
          "type": "tuple"
        }
      ],
      "stateMutability": "view",
      "type": "function"
    },
    {
      "inputs": [
        {
          "internalType": "address",
          "name": "user",
          "type": "address"
        }
      ],
      "name": "getUserPets",
      "outputs": [
        {
          "internalType": "uint256[]",
          "name": "",
          "type": "uint256[]"
        }
      ],
      "stateMutability": "view",
      "type": "function"
    },
    {
      "inputs": [
        {
          "internalType": "address",
          "name": "owner",
          "type": "address"
        },
        {
          "internalType": "address",
          "name": "operator",
          "type": "address"
        }
      ],
      "name": "isApprovedForAll",
      "outputs": [
        {
          "internalType": "bool",
          "name": "",
          "type": "bool"
        }
      ],
      "stateMutability": "view",
      "type": "function"
    },
    {
      "inputs": [
        {
          "internalType": "address",
          "name": "to",
          "type": "address"
        },
        {
          "internalType": "string",
          "name": "uri",
          "type": "string"
        },
        {
          "internalType": "string",
          "name": "_emotion",
          "type": "string"
        },
        {
          "internalType": "string",
          "name": "_color",
          "type": "string"
        },
        {
          "internalType": "uint8",
          "name": "_evolution",
          "type": "uint8"
        },
        {
          "internalType": "string",
          "name": "_personality",
          "type": "string"
        }
      ],
      "name": "mintMoodiPet",
      "outputs": [],
      "stateMutability": "nonpayable",
      "type": "function"
    },
    {
      "inputs": [],
      "name": "name",
      "outputs": [
        {
          "internalType": "string",
          "name": "",
          "type": "string"
        }
      ],
      "stateMutability": "view",
      "type": "function"
    },
    {
      "inputs": [],
      "name": "owner",
      "outputs": [
        {
          "internalType": "address",
          "name": "",
          "type": "address"
        }
      ],
      "stateMutability": "view",
      "type": "function"
    },
    {
      "inputs": [
        {
          "internalType": "uint256",
          "name": "tokenId",
          "type": "uint256"
        }
      ],
      "name": "ownerOf",
      "outputs": [
        {
          "internalType": "address",
          "name": "",
          "type": "address"
        }
      ],
      "stateMutability": "view",
      "type": "function"
    },
    {
      "inputs": [
        {
          "internalType": "uint256",
          "name": "",
          "type": "uint256"
        }
      ],
      "name": "petAttributes",
      "outputs": [
        {
          "internalType": "string",
          "name": "emotion",
          "type": "string"
        },
        {
          "internalType": "string",
          "name": "color",
          "type": "string"
        },
        {
          "internalType": "uint8",
          "name": "evolution",
          "type": "uint8"
        },
        {
          "internalType": "uint256",
          "name": "createdAt",
          "type": "uint256"
        },
        {
          "internalType": "string",
          "name": "personality",
          "type": "string"
        }
      ],
      "stateMutability": "view",
      "type": "function"
    },
    {
      "inputs": [],
      "name": "renounceOwnership",
      "outputs": [],
      "stateMutability": "nonpayable",
      "type": "function"
    },
    {
      "inputs": [
        {
          "internalType": "address",
          "name": "from",
          "type": "address"
        },
        {
          "internalType": "address",
          "name": "to",
          "type": "address"
        },
        {
          "internalType": "uint256",
          "name": "tokenId",
          "type": "uint256"
        }
      ],
      "name": "safeTransferFrom",
      "outputs": [],
      "stateMutability": "nonpayable",
      "type": "function"
    },
    {
      "inputs": [
        {
          "internalType": "address",
          "name": "from",
          "type": "address"
        },
        {
          "internalType": "address",
          "name": "to",
          "type": "address"
        },
        {
          "internalType": "uint256",
          "name": "tokenId",
          "type": "uint256"
        },
        {
          "internalType": "bytes",
          "name": "data",
          "type": "bytes"
        }
      ],
      "name": "safeTransferFrom",
      "outputs": [],
      "stateMutability": "nonpayable",
      "type": "function"
    },
    {
      "inputs": [
        {
          "internalType": "address",
          "name": "operator",
          "type": "address"
        },
        {
          "internalType": "bool",
          "name": "approved",
          "type": "bool"
        }
      ],
      "name": "setApprovalForAll",
      "outputs": [],
      "stateMutability": "nonpayable",
      "type": "function"
    },
    {
      "inputs": [
        {
          "internalType": "bytes4",
          "name": "interfaceId",
          "type": "bytes4"
        }
      ],
      "name": "supportsInterface",
      "outputs": [
        {
          "internalType": "bool",
          "name": "",
          "type": "bool"
        }
      ],
      "stateMutability": "view",
      "type": "function"
    },
    {
      "inputs": [],
      "name": "symbol",
      "outputs": [
        {
          "internalType": "string",
          "name": "",
          "type": "string"
        }
      ],
      "stateMutability": "view",
      "type": "function"
    },
    {
      "inputs": [
        {
          "internalType": "uint256",
          "name": "tokenId",
          "type": "uint256"
        }
      ],
      "name": "tokenURI",
      "outputs": [
        {
          "internalType": "string",
          "name": "",
          "type": "string"
        }
      ],
      "stateMutability": "view",
      "type": "function"
    },
    {
      "inputs": [
        {
          "internalType": "address",
          "name": "from",
          "type": "address"
        },
        {
          "internalType": "address",
          "name": "to",
          "type": "address"
        },
        {
          "internalType": "uint256",
          "name": "tokenId",
          "type": "uint256"
        }
      ],
      "name": "transferFrom",
      "outputs": [],
      "stateMutability": "nonpayable",
      "type": "function"
    },
    {
      "inputs": [
        {
          "internalType": "address",
          "name": "newOwner",
          "type": "address"
        }
      ],
      "name": "transferOwnership",
      "outputs": [],
      "stateMutability": "nonpayable",
      "type": "function"
    },
    {
      "inputs": [
        {
          "internalType": "address",
          "name": "",
          "type": "address"
        }
      ],
      "name": "userPetCount",
      "outputs": [
        {
          "internalType": "uint256",
          "name": "",
          "type": "uint256"
        }
      ],
      "stateMutability": "view",
      "type": "function"
    }
  ],
  "bytecode": "0x6080604052600160085534801561001557600080fd5b50604051613b67380380613b6783398181016040528101906100379190610275565b6040518060400160405280600881526020017f4d6f6f64695065740000000000000000000000000000000000000000000000008152506040518060400160405280600381526020017f4d4450000000000000000000000000000000000000000000000000000000000081525082600073ffffffffffffffffffffffffffffffffffffffff168173ffffffffffffffffffffffffffffffffffffffff16036101165760006040517f1e4fbdf700000000000000000000000000000000000000000000000000000000815260040161010d91906102b1565b60405180910390fd5b6101258161014e60201b60201c565b508160019081610135919061051c565b508060029081610145919061051c565b505050506105ee565b60008060009054906101000a900473ffffffffffffffffffffffffffffffffffffffff169050816000806101000a81548173ffffffffffffffffffffffffffffffffffffffff021916908373ffffffffffffffffffffffffffffffffffffffff1602179055508173ffffffffffffffffffffffffffffffffffffffff168173ffffffffffffffffffffffffffffffffffffffff167f8be0079c531659141344cd1fd0a4f28419497f9722a3daafe3b4186f6b6457e060405160405180910390a35050565b600080fd5b600073ffffffffffffffffffffffffffffffffffffffff82169050919050565b600061024282610217565b9050919050565b61025281610237565b811461025d57600080fd5b50565b60008151905061026f81610249565b92915050565b60006020828403121561028b5761028a610212565b5b600061029984828501610260565b91505092915050565b6102ab81610237565b82525050565b60006020820190506102c660008301846102a2565b92915050565b600081519050919050565b7f4e487b7100000000000000000000000000000000000000000000000000000000600052604160045260246000fd5b7f4e487b7100000000000000000000000000000000000000000000000000000000600052602260045260246000fd5b6000600282049050600182168061034d57607f821691505b6020821081036103605761035f610306565b5b50919050565b60008190508160005260206000209050919050565b60006020601f8301049050919050565b600082821b905092915050565b6000600883026103c87fffffffffffffffffffffffffffffffffffffffffffffffffffffffffffffffff8261038b565b6103d2868361038b565b95508019841693508086168417925050509392505050565b6000819050919050565b6000819050919050565b600061041961041461040f846103ea565b6103f4565b6103ea565b9050919050565b6000819050919050565b610433836103fe565b61044761043f82610420565b848454610398565b825550505050565b600090565b61045c61044f565b61046781848461042a565b505050565b5b8181101561048b57610480600082610454565b60018101905061046d565b5050565b601f8211156104d0576104a181610366565b6104aa8461037b565b810160208510156104b9578190505b6104cd6104c58561037b565b83018261046c565b50505b505050565b600082821c905092915050565b60006104f3600019846008026104d5565b1980831691505092915050565b600061050c83836104e2565b9150826002028217905092915050565b610525826102cc565b67ffffffffffffffff81111561053e5761053d6102d7565b5b6105488254610335565b61055382828561048f565b600060209050601f8311600181146105865760008415610574578287015190505b61057e8582610500565b8655506105e6565b601f19841661059486610366565b60005b828110156105bc57848901518255600182019150602085019450602081019050610597565b868310156105d957848901516105d5601f8916826104e2565b8355505b6001600288020188555050505b505050505050565b61356a806105fd6000396000f3fe608060405234801561001057600080fd5b50600436106101415760003560e01c8063715018a6116100b8578063b88d4fde1161007c578063b88d4fde1461038a578063ba8cd532146103a6578063bfb08d06146103d6578063c87b56dd146103f2578063e985e9c514610422578063f2fde38b1461045257610141565b8063715018a6146102f457806378b1b03e146102fe5780638da5cb5b1461033257806395d89b4114610350578063a22cb4651461036e57610141565b806323b872dd1161010a57806323b872dd146101fc5780633b6db7b5146102185780633f324be01461024857806342842e0e146102785780636352211e1461029457806370a08231146102c457610141565b80629cec2b1461014657806301ffc9a71461016257806306fdde0314610192578063081812fc146101b0578063095ea7b3146101e0575b600080fd5b610160600480360381019061015b91906125f9565b61046e565b005b61017c6004803603810190610177919061274e565b61065a565b6040516101899190612796565b60405180910390f35b61019a6106bb565b6040516101a79190612830565b60405180910390f35b6101ca60048036038101906101c59190612888565b61074d565b6040516101d791906128c4565b60405180910390f35b6101fa60048036038101906101f591906128df565b610769565b005b6102166004803603810190610211919061291f565b61077f565b005b610232600480360381019061022d9190612888565b610881565b60405161023f9190612a5e565b60405180910390f35b610262600480360381019061025d9190612a80565b610b02565b60405161026f9190612abc565b60405180910390f35b610292600480360381019061028d919061291f565b610b1a565b005b6102ae60048036038101906102a99190612888565b610b3a565b6040516102bb91906128c4565b60405180910390f35b6102de60048036038101906102d99190612a80565b610b4c565b6040516102eb9190612abc565b60405180910390f35b6102fc610c06565b005b61031860048036038101906103139190612888565b610c1a565b604051610329959493929190612ae6565b60405180910390f35b61033a610df5565b60405161034791906128c4565b60405180910390f35b610358610e1e565b6040516103659190612830565b60405180910390f35b61038860048036038101906103839190612b7a565b610eb0565b005b6103a4600480360381019061039f9190612c5b565b610ec6565b005b6103c060048036038101906103bb9190612a80565b610eeb565b6040516103cd9190612d8d565b60405180910390f35b6103f060048036038101906103eb9190612daf565b61100d565b005b61040c60048036038101906104079190612888565b61113a565b6040516104199190612830565b60405180910390f35b61043c60048036038101906104379190612def565b61124d565b6040516104499190612796565b60405180910390f35b61046c60048036038101906104679190612a80565b6112e1565b005b610476611367565b60018260ff161015801561048e575060058260ff1611155b6104cd576040517f08c379a00000000000000000000000000000000000000000000000000000000081526004016104c490612ea1565b60405180910390fd5b6000600860008154809291906104e290612ef0565b9190505590506104f287826113ee565b6104fc818761140c565b6040518060a001604052808681526020018581526020018460ff1681526020014281526020018381525060096000838152602001908152602001600020600082015181600001908161054e9190613144565b5060208201518160010190816105649190613144565b5060408201518160020160006101000a81548160ff021916908360ff1602179055506060820151816003015560808201518160040190816105a59190613144565b50905050600a60008873ffffffffffffffffffffffffffffffffffffffff1673ffffffffffffffffffffffffffffffffffffffff16815260200190815260200160002060008154809291906105f990612ef0565b9190505550808773ffffffffffffffffffffffffffffffffffffffff167fd8497eb71c0b9984730e54e5015d68fd4e53f05253a5961bd36a440f7036c9ee87878760405161064993929190613216565b60405180910390a350505050505050565b6000634906490660e01b7bffffffffffffffffffffffffffffffffffffffffffffffffffffffff1916827bffffffffffffffffffffffffffffffffffffffffffffffffffffffff191614806106b457506106b382611468565b5b9050919050565b6060600180546106ca90612f67565b80601f01602080910402602001604051908101604052809291908181526020018280546106f690612f67565b80156107435780601f1061071857610100808354040283529160200191610743565b820191906000526020600020905b81548152906001019060200180831161072657829003601f168201915b5050505050905090565b60006107588261154a565b50610762826115d2565b9050919050565b61077b828261077661160f565b611617565b5050565b600073ffffffffffffffffffffffffffffffffffffffff168273ffffffffffffffffffffffffffffffffffffffff16036107f15760006040517f64a0ae920000000000000000000000000000000000000000000000000000000081526004016107e891906128c4565b60405180910390fd5b6000610805838361080061160f565b611629565b90508373ffffffffffffffffffffffffffffffffffffffff168173ffffffffffffffffffffffffffffffffffffffff161461087b578382826040517f64283d7b0000000000000000000000000000000000000000000000000000000081526004016108729392919061325b565b60405180910390fd5b50505050565b6108896123d6565b600073ffffffffffffffffffffffffffffffffffffffff166108aa83610b3a565b73ffffffffffffffffffffffffffffffffffffffff1603610900576040517f08c379a00000000000000000000000000000000000000000000000000000000081526004016108f7906132de565b60405180910390fd5b600960008381526020019081526020016000206040518060a001604052908160008201805461092e90612f67565b80601f016020809104026020016040519081016040528092919081815260200182805461095a90612f67565b80156109a75780601f1061097c576101008083540402835291602001916109a7565b820191906000526020600020905b81548152906001019060200180831161098a57829003601f168201915b505050505081526020016001820180546109c090612f67565b80601f01602080910402602001604051908101604052809291908181526020018280546109ec90612f67565b8015610a395780601f10610a0e57610100808354040283529160200191610a39565b820191906000526020600020905b815481529060010190602001808311610a1c57829003601f168201915b505050505081526020016002820160009054906101000a900460ff1660ff1660ff16815260200160038201548152602001600482018054610a7990612f67565b80601f0160208091040260200160405190810160405280929190818152602001828054610aa590612f67565b8015610af25780601f10610ac757610100808354040283529160200191610af2565b820191906000526020600020905b815481529060010190602001808311610ad557829003601f168201915b5050505050815250509050919050565b600a6020528060005260406000206000915090505481565b610b3583838360405180602001604052806000815250610ec6565b505050565b6000610b458261154a565b9050919050565b60008073ffffffffffffffffffffffffffffffffffffffff168273ffffffffffffffffffffffffffffffffffffffff1603610bbf5760006040517f89c62b64000000000000000000000000000000000000000000000000000000008152600401610bb691906128c4565b60405180910390fd5b600460008373ffffffffffffffffffffffffffffffffffffffff1673ffffffffffffffffffffffffffffffffffffffff168152602001908152602001600020549050919050565b610c0e611367565b610c186000611843565b565b6009602052806000526040600020600091509050806000018054610c3d90612f67565b80601f0160208091040260200160405190810160405280929190818152602001828054610c6990612f67565b8015610cb65780601f10610c8b57610100808354040283529160200191610cb6565b820191906000526020600020905b815481529060010190602001808311610c9957829003601f168201915b505050505090806001018054610ccb90612f67565b80601f0160208091040260200160405190810160405280929190818152602001828054610cf790612f67565b8015610d445780601f10610d1957610100808354040283529160200191610d44565b820191906000526020600020905b815481529060010190602001808311610d2757829003601f168201915b5050505050908060020160009054906101000a900460ff1690806003015490806004018054610d7290612f67565b80601f0160208091040260200160405190810160405280929190818152602001828054610d9e90612f67565b8015610deb5780601f10610dc057610100808354040283529160200191610deb565b820191906000526020600020905b815481529060010190602001808311610dce57829003601f168201915b5050505050905085565b60008060009054906101000a900473ffffffffffffffffffffffffffffffffffffffff16905090565b606060028054610e2d90612f67565b80601f0160208091040260200160405190810160405280929190818152602001828054610e5990612f67565b8015610ea65780601f10610e7b57610100808354040283529160200191610ea6565b820191906000526020600020905b815481529060010190602001808311610e8957829003601f168201915b5050505050905090565b610ec2610ebb61160f565b8383611907565b5050565b610ed184848461077f565b610ee5610edc61160f565b85858585611a76565b50505050565b60606000600a60008473ffffffffffffffffffffffffffffffffffffffff1673ffffffffffffffffffffffffffffffffffffffff1681526020019081526020016000205467ffffffffffffffff811115610f4857610f47612495565b5b604051908082528060200260200182016040528015610f765781602001602082028036833780820191505090505b509050600080600190505b600854811015611002578473ffffffffffffffffffffffffffffffffffffffff16610fab82610b3a565b73ffffffffffffffffffffffffffffffffffffffff1603610ff55780838381518110610fda57610fd96132fe565b5b6020026020010181815250508180610ff190612ef0565b9250505b8080600101915050610f81565b508192505050919050565b611015611367565b600073ffffffffffffffffffffffffffffffffffffffff1661103683610b3a565b73ffffffffffffffffffffffffffffffffffffffff160361108c576040517f08c379a0000000000000000000000000000000000000000000000000000000008152600401611083906132de565b60405180910390fd5b6009600083815260200190815260200160002060020160009054906101000a900460ff1660ff168160ff161180156110c8575060058160ff1611155b611107576040517f08c379a00000000000000000000000000000000000000000000000000000000081526004016110fe90613379565b60405180910390fd5b806009600084815260200190815260200160002060020160006101000a81548160ff021916908360ff1602179055505050565b60606111458261154a565b50600060076000848152602001908152602001600020805461116690612f67565b80601f016020809104026020016040519081016040528092919081815260200182805461119290612f67565b80156111df5780601f106111b4576101008083540402835291602001916111df565b820191906000526020600020905b8154815290600101906020018083116111c257829003601f168201915b5050505050905060006111f0611c27565b90506000815103611205578192505050611248565b60008251111561123a5780826040516020016112229291906133d5565b60405160208183030381529060405292505050611248565b61124384611c3e565b925050505b919050565b6000600660008473ffffffffffffffffffffffffffffffffffffffff1673ffffffffffffffffffffffffffffffffffffffff16815260200190815260200160002060008373ffffffffffffffffffffffffffffffffffffffff1673ffffffffffffffffffffffffffffffffffffffff16815260200190815260200160002060009054906101000a900460ff16905092915050565b6112e9611367565b600073ffffffffffffffffffffffffffffffffffffffff168173ffffffffffffffffffffffffffffffffffffffff160361135b5760006040517f1e4fbdf700000000000000000000000000000000000000000000000000000000815260040161135291906128c4565b60405180910390fd5b61136481611843565b50565b61136f61160f565b73ffffffffffffffffffffffffffffffffffffffff1661138d610df5565b73ffffffffffffffffffffffffffffffffffffffff16146113ec576113b061160f565b6040517f118cdaa70000000000000000000000000000000000000000000000000000000081526004016113e391906128c4565b60405180910390fd5b565b611408828260405180602001604052806000815250611ca7565b5050565b8060076000848152602001908152602001600020908161142c9190613144565b507ff8e1a15aba9398e019f0b49df1a4fde98ee17ae345cb5f6b5e2c27f5033e8ce78260405161145c9190612abc565b60405180910390a15050565b60007f80ac58cd000000000000000000000000000000000000000000000000000000007bffffffffffffffffffffffffffffffffffffffffffffffffffffffff1916827bffffffffffffffffffffffffffffffffffffffffffffffffffffffff1916148061153357507f5b5e139f000000000000000000000000000000000000000000000000000000007bffffffffffffffffffffffffffffffffffffffffffffffffffffffff1916827bffffffffffffffffffffffffffffffffffffffffffffffffffffffff1916145b80611543575061154282611ccb565b5b9050919050565b60008061155683611d35565b9050600073ffffffffffffffffffffffffffffffffffffffff168173ffffffffffffffffffffffffffffffffffffffff16036115c957826040517f7e2732890000000000000000000000000000000000000000000000000000000081526004016115c09190612abc565b60405180910390fd5b80915050919050565b60006005600083815260200190815260200160002060009054906101000a900473ffffffffffffffffffffffffffffffffffffffff169050919050565b600033905090565b6116248383836001611d72565b505050565b60008061163584611d35565b9050600073ffffffffffffffffffffffffffffffffffffffff168373ffffffffffffffffffffffffffffffffffffffff161461167757611676818486611f37565b5b600073ffffffffffffffffffffffffffffffffffffffff168173ffffffffffffffffffffffffffffffffffffffff1614611708576116b9600085600080611d72565b6001600460008373ffffffffffffffffffffffffffffffffffffffff1673ffffffffffffffffffffffffffffffffffffffff168152602001908152602001600020600082825403925050819055505b600073ffffffffffffffffffffffffffffffffffffffff168573ffffffffffffffffffffffffffffffffffffffff161461178b576001600460008773ffffffffffffffffffffffffffffffffffffffff1673ffffffffffffffffffffffffffffffffffffffff168152602001908152602001600020600082825401925050819055505b846003600086815260200190815260200160002060006101000a81548173ffffffffffffffffffffffffffffffffffffffff021916908373ffffffffffffffffffffffffffffffffffffffff160217905550838573ffffffffffffffffffffffffffffffffffffffff168273ffffffffffffffffffffffffffffffffffffffff167fddf252ad1be2c89b69c2b068fc378daa952ba7f163c4a11628f55a4df523b3ef60405160405180910390a4809150509392505050565b60008060009054906101000a900473ffffffffffffffffffffffffffffffffffffffff169050816000806101000a81548173ffffffffffffffffffffffffffffffffffffffff021916908373ffffffffffffffffffffffffffffffffffffffff1602179055508173ffffffffffffffffffffffffffffffffffffffff168173ffffffffffffffffffffffffffffffffffffffff167f8be0079c531659141344cd1fd0a4f28419497f9722a3daafe3b4186f6b6457e060405160405180910390a35050565b600073ffffffffffffffffffffffffffffffffffffffff168273ffffffffffffffffffffffffffffffffffffffff160361197857816040517f5b08ba1800000000000000000000000000000000000000000000000000000000815260040161196f91906128c4565b60405180910390fd5b80600660008573ffffffffffffffffffffffffffffffffffffffff1673ffffffffffffffffffffffffffffffffffffffff16815260200190815260200160002060008473ffffffffffffffffffffffffffffffffffffffff1673ffffffffffffffffffffffffffffffffffffffff16815260200190815260200160002060006101000a81548160ff0219169083151502179055508173ffffffffffffffffffffffffffffffffffffffff168373ffffffffffffffffffffffffffffffffffffffff167f17307eab39ab6107e8899845ad3d59bd9653f200f220920489ca2b5937696c3183604051611a699190612796565b60405180910390a3505050565b60008373ffffffffffffffffffffffffffffffffffffffff163b1115611c20578273ffffffffffffffffffffffffffffffffffffffff1663150b7a02868685856040518563ffffffff1660e01b8152600401611ad5949392919061344e565b6020604051808303816000875af1925050508015611b1157506040513d601f19601f82011682018060405250810190611b0e91906134af565b60015b611b95573d8060008114611b41576040519150601f19603f3d011682016040523d82523d6000602084013e611b46565b606091505b506000815103611b8d57836040517f64a0ae92000000000000000000000000000000000000000000000000000000008152600401611b8491906128c4565b60405180910390fd5b805181602001fd5b63150b7a0260e01b7bffffffffffffffffffffffffffffffffffffffffffffffffffffffff1916817bffffffffffffffffffffffffffffffffffffffffffffffffffffffff191614611c1e57836040517f64a0ae92000000000000000000000000000000000000000000000000000000008152600401611c1591906128c4565b60405180910390fd5b505b5050505050565b606060405180602001604052806000815250905090565b6060611c498261154a565b506000611c54611c27565b90506000815111611c745760405180602001604052806000815250611c9f565b80611c7e84611ffb565b604051602001611c8f9291906133d5565b6040516020818303038152906040525b915050919050565b611cb183836120c9565b611cc6611cbc61160f565b6000858585611a76565b505050565b60007f01ffc9a7000000000000000000000000000000000000000000000000000000007bffffffffffffffffffffffffffffffffffffffffffffffffffffffff1916827bffffffffffffffffffffffffffffffffffffffffffffffffffffffff1916149050919050565b60006003600083815260200190815260200160002060009054906101000a900473ffffffffffffffffffffffffffffffffffffffff169050919050565b8080611dab5750600073ffffffffffffffffffffffffffffffffffffffff168273ffffffffffffffffffffffffffffffffffffffff1614155b15611edf576000611dbb8461154a565b9050600073ffffffffffffffffffffffffffffffffffffffff168373ffffffffffffffffffffffffffffffffffffffff1614158015611e2657508273ffffffffffffffffffffffffffffffffffffffff168173ffffffffffffffffffffffffffffffffffffffff1614155b8015611e395750611e37818461124d565b155b15611e7b57826040517fa9fbf51f000000000000000000000000000000000000000000000000000000008152600401611e7291906128c4565b60405180910390fd5b8115611edd57838573ffffffffffffffffffffffffffffffffffffffff168273ffffffffffffffffffffffffffffffffffffffff167f8c5be1e5ebec7d5bd14f71427d1e84f3dd0314c0f7b2291e5b200ac8c7c3b92560405160405180910390a45b505b836005600085815260200190815260200160002060006101000a81548173ffffffffffffffffffffffffffffffffffffffff021916908373ffffffffffffffffffffffffffffffffffffffff16021790555050505050565b611f428383836121c2565b611ff657600073ffffffffffffffffffffffffffffffffffffffff168373ffffffffffffffffffffffffffffffffffffffff1603611fb757806040517f7e273289000000000000000000000000000000000000000000000000000000008152600401611fae9190612abc565b60405180910390fd5b81816040517f177e802f000000000000000000000000000000000000000000000000000000008152600401611fed9291906134dc565b60405180910390fd5b505050565b60606000600161200a84612283565b01905060008167ffffffffffffffff81111561202957612028612495565b5b6040519080825280601f01601f19166020018201604052801561205b5781602001600182028036833780820191505090505b509050600082602001820190505b6001156120be578080600190039150507f3031323334353637383961626364656600000000000000000000000000000000600a86061a8153600a85816120b2576120b1613505565b5b04945060008503612069575b819350505050919050565b600073ffffffffffffffffffffffffffffffffffffffff168273ffffffffffffffffffffffffffffffffffffffff160361213b5760006040517f64a0ae9200000000000000000000000000000000000000000000000000000000815260040161213291906128c4565b60405180910390fd5b600061214983836000611629565b9050600073ffffffffffffffffffffffffffffffffffffffff168173ffffffffffffffffffffffffffffffffffffffff16146121bd5760006040517f73c6ac6e0000000000000000000000000000000000000000000000000000000081526004016121b491906128c4565b60405180910390fd5b505050565b60008073ffffffffffffffffffffffffffffffffffffffff168373ffffffffffffffffffffffffffffffffffffffff161415801561227a57508273ffffffffffffffffffffffffffffffffffffffff168473ffffffffffffffffffffffffffffffffffffffff16148061223b575061223a848461124d565b5b8061227957508273ffffffffffffffffffffffffffffffffffffffff16612261836115d2565b73ffffffffffffffffffffffffffffffffffffffff16145b5b90509392505050565b600080600090507a184f03e93ff9f4daa797ed6e38ed64bf6a1f01000000000000000083106122e1577a184f03e93ff9f4daa797ed6e38ed64bf6a1f01000000000000000083816122d7576122d6613505565b5b0492506040810190505b6d04ee2d6d415b85acef8100000000831061231e576d04ee2d6d415b85acef8100000000838161231457612313613505565b5b0492506020810190505b662386f26fc10000831061234d57662386f26fc10000838161234357612342613505565b5b0492506010810190505b6305f5e1008310612376576305f5e100838161236c5761236b613505565b5b0492506008810190505b612710831061239b57612710838161239157612390613505565b5b0492506004810190505b606483106123be57606483816123b4576123b3613505565b5b0492506002810190505b600a83106123cd576001810190505b80915050919050565b6040518060a001604052806060815260200160608152602001600060ff16815260200160008152602001606081525090565b6000604051905090565b600080fd5b600080fd5b600073ffffffffffffffffffffffffffffffffffffffff82169050919050565b60006124478261241c565b9050919050565b6124578161243c565b811461246257600080fd5b50565b6000813590506124748161244e565b92915050565b600080fd5b600080fd5b6000601f19601f8301169050919050565b7f4e487b7100000000000000000000000000000000000000000000000000000000600052604160045260246000fd5b6124cd82612484565b810181811067ffffffffffffffff821117156124ec576124eb612495565b5b80604052505050565b60006124ff612408565b905061250b82826124c4565b919050565b600067ffffffffffffffff82111561252b5761252a612495565b5b61253482612484565b9050602081019050919050565b82818337600083830152505050565b600061256361255e84612510565b6124f5565b90508281526020810184848401111561257f5761257e61247f565b5b61258a848285612541565b509392505050565b600082601f8301126125a7576125a661247a565b5b81356125b7848260208601612550565b91505092915050565b600060ff82169050919050565b6125d6816125c0565b81146125e157600080fd5b50565b6000813590506125f3816125cd565b92915050565b60008060008060008060c0878903121561261657612615612412565b5b600061262489828a01612465565b965050602087013567ffffffffffffffff81111561264557612644612417565b5b61265189828a01612592565b955050604087013567ffffffffffffffff81111561267257612671612417565b5b61267e89828a01612592565b945050606087013567ffffffffffffffff81111561269f5761269e612417565b5b6126ab89828a01612592565b93505060806126bc89828a016125e4565b92505060a087013567ffffffffffffffff8111156126dd576126dc612417565b5b6126e989828a01612592565b9150509295509295509295565b60007fffffffff0000000000000000000000000000000000000000000000000000000082169050919050565b61272b816126f6565b811461273657600080fd5b50565b60008135905061274881612722565b92915050565b60006020828403121561276457612763612412565b5b600061277284828501612739565b91505092915050565b60008115159050919050565b6127908161277b565b82525050565b60006020820190506127ab6000830184612787565b92915050565b600081519050919050565b600082825260208201905092915050565b60005b838110156127eb5780820151818401526020810190506127d0565b60008484015250505050565b6000612802826127b1565b61280c81856127bc565b935061281c8185602086016127cd565b61282581612484565b840191505092915050565b6000602082019050818103600083015261284a81846127f7565b905092915050565b6000819050919050565b61286581612852565b811461287057600080fd5b50565b6000813590506128828161285c565b92915050565b60006020828403121561289e5761289d612412565b5b60006128ac84828501612873565b91505092915050565b6128be8161243c565b82525050565b60006020820190506128d960008301846128b5565b92915050565b600080604083850312156128f6576128f5612412565b5b600061290485828601612465565b925050602061291585828601612873565b9150509250929050565b60008060006060848603121561293857612937612412565b5b600061294686828701612465565b935050602061295786828701612465565b925050604061296886828701612873565b9150509250925092565b600082825260208201905092915050565b600061298e826127b1565b6129988185612972565b93506129a88185602086016127cd565b6129b181612484565b840191505092915050565b6129c5816125c0565b82525050565b6129d481612852565b82525050565b600060a08301600083015184820360008601526129f78282612983565b91505060208301518482036020860152612a118282612983565b9150506040830151612a2660408601826129bc565b506060830151612a3960608601826129cb565b5060808301518482036080860152612a518282612983565b9150508091505092915050565b60006020820190508181036000830152612a7881846129da565b905092915050565b600060208284031215612a9657612a95612412565b5b6000612aa484828501612465565b91505092915050565b612ab681612852565b82525050565b6000602082019050612ad16000830184612aad565b92915050565b612ae0816125c0565b82525050565b600060a0820190508181036000830152612b0081886127f7565b90508181036020830152612b1481876127f7565b9050612b236040830186612ad7565b612b306060830185612aad565b8181036080830152612b4281846127f7565b90509695505050505050565b612b578161277b565b8114612b6257600080fd5b50565b600081359050612b7481612b4e565b92915050565b60008060408385031215612b9157612b90612412565b5b6000612b9f85828601612465565b9250506020612bb085828601612b65565b9150509250929050565b600067ffffffffffffffff821115612bd557612bd4612495565b5b612bde82612484565b9050602081019050919050565b6000612bfe612bf984612bba565b6124f5565b905082815260208101848484011115612c1a57612c1961247f565b5b612c25848285612541565b509392505050565b600082601f830112612c4257612c4161247a565b5b8135612c52848260208601612beb565b91505092915050565b60008060008060808587031215612c7557612c74612412565b5b6000612c8387828801612465565b9450506020612c9487828801612465565b9350506040612ca587828801612873565b925050606085013567ffffffffffffffff811115612cc657612cc5612417565b5b612cd287828801612c2d565b91505092959194509250565b600081519050919050565b600082825260208201905092915050565b6000819050602082019050919050565b6000612d1683836129cb565b60208301905092915050565b6000602082019050919050565b6000612d3a82612cde565b612d448185612ce9565b9350612d4f83612cfa565b8060005b83811015612d80578151612d678882612d0a565b9750612d7283612d22565b925050600181019050612d53565b5085935050505092915050565b60006020820190508181036000830152612da78184612d2f565b905092915050565b60008060408385031215612dc657612dc5612412565b5b6000612dd485828601612873565b9250506020612de5858286016125e4565b9150509250929050565b60008060408385031215612e0657612e05612412565b5b6000612e1485828601612465565b9250506020612e2585828601612465565b9150509250929050565b7f45766f6c7574696f6e206c6576656c206d757374206265206265747765656e2060008201527f3120616e64203500000000000000000000000000000000000000000000000000602082015250565b6000612e8b6027836127bc565b9150612e9682612e2f565b604082019050919050565b60006020820190508181036000830152612eba81612e7e565b9050919050565b7f4e487b7100000000000000000000000000000000000000000000000000000000600052601160045260246000fd5b6000612efb82612852565b91507fffffffffffffffffffffffffffffffffffffffffffffffffffffffffffffffff8203612f2d57612f2c612ec1565b5b600182019050919050565b7f4e487b7100000000000000000000000000000000000000000000000000000000600052602260045260246000fd5b60006002820490506001821680612f7f57607f821691505b602082108103612f9257612f91612f38565b5b50919050565b60008190508160005260206000209050919050565b60006020601f8301049050919050565b600082821b905092915050565b600060088302612ffa7fffffffffffffffffffffffffffffffffffffffffffffffffffffffffffffffff82612fbd565b6130048683612fbd565b95508019841693508086168417925050509392505050565b6000819050919050565b600061304161303c61303784612852565b61301c565b612852565b9050919050565b6000819050919050565b61305b83613026565b61306f61306782613048565b848454612fca565b825550505050565b600090565b613084613077565b61308f818484613052565b505050565b5b818110156130b3576130a860008261307c565b600181019050613095565b5050565b601f8211156130f8576130c981612f98565b6130d284612fad565b810160208510156130e1578190505b6130f56130ed85612fad565b830182613094565b50505b505050565b600082821c905092915050565b600061311b600019846008026130fd565b1980831691505092915050565b6000613134838361310a565b9150826002028217905092915050565b61314d826127b1565b67ffffffffffffffff81111561316657613165612495565b5b6131708254612f67565b61317b8282856130b7565b600060209050601f8311600181146131ae576000841561319c578287015190505b6131a68582613128565b86555061320e565b601f1984166131bc86612f98565b60005b828110156131e4578489015182556001820191506020850194506020810190506131bf565b8683101561320157848901516131fd601f89168261310a565b8355505b6001600288020188555050505b505050505050565b6000606082019050818103600083015261323081866127f7565b9050818103602083015261324481856127f7565b90506132536040830184612ad7565b949350505050565b600060608201905061327060008301866128b5565b61327d6020830185612aad565b61328a60408301846128b5565b949350505050565b7f546f6b656e20646f6573206e6f74206578697374000000000000000000000000600082015250565b60006132c86014836127bc565b91506132d382613292565b602082019050919050565b600060208201905081810360008301526132f7816132bb565b9050919050565b7f4e487b7100000000000000000000000000000000000000000000000000000000600052603260045260246000fd5b7f496e76616c69642065766f6c7574696f6e206c6576656c000000000000000000600082015250565b60006133636017836127bc565b915061336e8261332d565b602082019050919050565b6000602082019050818103600083015261339281613356565b9050919050565b600081905092915050565b60006133af826127b1565b6133b98185613399565b93506133c98185602086016127cd565b80840191505092915050565b60006133e182856133a4565b91506133ed82846133a4565b91508190509392505050565b600081519050919050565b600082825260208201905092915050565b6000613420826133f9565b61342a8185613404565b935061343a8185602086016127cd565b61344381612484565b840191505092915050565b600060808201905061346360008301876128b5565b61347060208301866128b5565b61347d6040830185612aad565b818103606083015261348f8184613415565b905095945050505050565b6000815190506134a981612722565b92915050565b6000602082840312156134c5576134c4612412565b5b60006134d38482850161349a565b91505092915050565b60006040820190506134f160008301856128b5565b6134fe6020830184612aad565b9392505050565b7f4e487b7100000000000000000000000000000000000000000000000000000000600052601260045260246000fdfea2646970667358221220a43724275295b35c0a83b84144d255355c019826f9cf7c5f290d649ecaf6b89a64736f6c634300081c0033",
  "linkReferences": {},
  "deployedLinkReferences": {}
}